{
  "contracts/Array.sol": {
    "Arraycontract": {
      "abi": [
        {
          "inputs": [
            {
              "internalType": "string",
              "name": "_name",
              "type": "string"
            }
          ],
          "stateMutability": "nonpayable",
          "type": "constructor"
        },
        {
          "inputs": [
            {
              "internalType": "uint256",
              "name": "index",
              "type": "uint256"
            }
          ],
          "name": "Arraydelete",
          "outputs": [],
          "stateMutability": "nonpayable",
          "type": "function"
        },
        {
          "inputs": [],
          "name": "Arraylength",
          "outputs": [
            {
              "internalType": "uint256",
              "name": "",
              "type": "uint256"
            }
          ],
          "stateMutability": "view",
          "type": "function"
        },
        {
          "inputs": [],
          "name": "Arraypop",
          "outputs": [
            {
              "internalType": "uint256[]",
              "name": "",
              "type": "uint256[]"
            }
          ],
          "stateMutability": "nonpayable",
          "type": "function"
        },
        {
          "inputs": [
            {
              "internalType": "uint256",
              "name": "num",
              "type": "uint256"
            }
          ],
          "name": "Arraypush",
          "outputs": [
            {
              "internalType": "uint256[]",
              "name": "",
              "type": "uint256[]"
            }
          ],
          "stateMutability": "nonpayable",
          "type": "function"
        },
        {
          "inputs": [],
          "name": "name",
          "outputs": [
            {
              "internalType": "string",
              "name": "",
              "type": "string"
            }
          ],
          "stateMutability": "view",
          "type": "function"
        },
        {
          "inputs": [
            {
              "internalType": "uint256",
              "name": "",
              "type": "uint256"
            }
          ],
          "name": "number",
          "outputs": [
            {
              "internalType": "uint256",
              "name": "",
              "type": "uint256"
            }
          ],
          "stateMutability": "view",
          "type": "function"
        },
        {
          "inputs": [
            {
              "internalType": "uint256",
              "name": "",
              "type": "uint256"
            }
          ],
          "name": "number1",
          "outputs": [
            {
              "internalType": "uint256",
              "name": "",
              "type": "uint256"
            }
          ],
          "stateMutability": "view",
          "type": "function"
        }
      ],
      "evm": {
        "bytecode": {
          "linkReferences": {},
          "object": "60806040526040518060600160405280600360ff168152602001600560ff168152602001600260ff16815250600290600361003b929190610080565b5034801561004857600080fd5b50604051610d0d380380610d0d833981810160405281019061006a9190610264565b806000908161007991906104ce565b50506105a0565b8280548282559060005260206000209081019282156100c1579160200282015b828111156100c0578251829060ff169055916020019190600101906100a0565b5b5090506100ce91906100d2565b5090565b5b808211156100eb5760008160009055506001016100d3565b5090565b6000604051905090565b600080fd5b600080fd5b600080fd5b600080fd5b6000601f19601f8301169050919050565b7f4e487b7100000000000000000000000000000000000000000000000000000000600052604160045260246000fd5b6101568261010d565b810181811067ffffffffffffffff821117156101755761017461011e565b5b80604052505050565b60006101886100ef565b9050610194828261014d565b919050565b600067ffffffffffffffff8211156101b4576101b361011e565b5b6101bd8261010d565b9050602081019050919050565b60005b838110156101e85780820151818401526020810190506101cd565b60008484015250505050565b600061020761020284610199565b61017e565b90508281526020810184848401111561022357610222610108565b5b61022e8482856101ca565b509392505050565b600082601f83011261024b5761024a610103565b5b815161025b8482602086016101f4565b91505092915050565b60006020828403121561027a576102796100f9565b5b600082015167ffffffffffffffff811115610298576102976100fe565b5b6102a484828501610236565b91505092915050565b600081519050919050565b7f4e487b7100000000000000000000000000000000000000000000000000000000600052602260045260246000fd5b600060028204905060018216806102ff57607f821691505b602082108103610312576103116102b8565b5b50919050565b60008190508160005260206000209050919050565b60006020601f8301049050919050565b600082821b905092915050565b60006008830261037a7fffffffffffffffffffffffffffffffffffffffffffffffffffffffffffffffff8261033d565b610384868361033d565b95508019841693508086168417925050509392505050565b6000819050919050565b6000819050919050565b60006103cb6103c66103c18461039c565b6103a6565b61039c565b9050919050565b6000819050919050565b6103e5836103b0565b6103f96103f1826103d2565b84845461034a565b825550505050565b600090565b61040e610401565b6104198184846103dc565b505050565b5b8181101561043d57610432600082610406565b60018101905061041f565b5050565b601f8211156104825761045381610318565b61045c8461032d565b8101602085101561046b578190505b61047f6104778561032d565b83018261041e565b50505b505050565b600082821c905092915050565b60006104a560001984600802610487565b1980831691505092915050565b60006104be8383610494565b9150826002028217905092915050565b6104d7826102ad565b67ffffffffffffffff8111156104f0576104ef61011e565b5b6104fa82546102e7565b610505828285610441565b600060209050601f8311600181146105385760008415610526578287015190505b61053085826104b2565b865550610598565b601f19841661054686610318565b60005b8281101561056e57848901518255600182019150602085019450602081019050610549565b8683101561058b5784890151610587601f891682610494565b8355505b6001600288020188555050505b505050505050565b61075e806105af6000396000f3fe608060405234801561001057600080fd5b506004361061007d5760003560e01c8063a650d2d71161005b578063a650d2d7146100ec578063cd313a061461011c578063eb8db15c1461013a578063f665e4081461016a5761007d565b806306fdde0314610082578063431aabc2146100a05780634526a43f146100d0575b600080fd5b61008a610188565b604051610097919061046a565b60405180910390f35b6100ba60048036038101906100b591906104c7565b610216565b6040516100c79190610503565b60405180910390f35b6100ea60048036038101906100e591906104c7565b61023a565b005b610106600480360381019061010191906104c7565b6102a6565b6040516101139190610503565b60405180910390f35b6101246102ca565b6040516101319190610503565b60405180910390f35b610154600480360381019061014f91906104c7565b6102d7565b60405161016191906105dc565b60405180910390f35b61017261035a565b60405161017f91906105dc565b60405180910390f35b600080546101959061062d565b80601f01602080910402602001604051908101604052809291908181526020018280546101c19061062d565b801561020e5780601f106101e35761010080835404028352916020019161020e565b820191906000526020600020905b8154815290600101906020018083116101f157829003601f168201915b505050505081565b6001818154811061022657600080fd5b906000526020600020016000915090505481565b6002805490508110610281576040517f08c379a0000000000000000000000000000000000000000000000000000000008152600401610278906106aa565b60405180910390fd5b60028181548110610295576102946106ca565b5b906000526020600020016000905550565b600281815481106102b657600080fd5b906000526020600020016000915090505481565b6000600280549050905090565b60606001829080600181540180825580915050600190039060005260206000200160009091909190915055600180548060200260200160405190810160405280929190818152602001828054801561034e57602002820191906000526020600020905b81548152602001906001019080831161033a575b50505050509050919050565b6060600280548061036e5761036d6106f9565b5b6001900381819060005260206000200160009055905560028054806020026020016040519081016040528092919081815260200182805480156103d057602002820191906000526020600020905b8154815260200190600101908083116103bc575b5050505050905090565b600081519050919050565b600082825260208201905092915050565b60005b838110156104145780820151818401526020810190506103f9565b60008484015250505050565b6000601f19601f8301169050919050565b600061043c826103da565b61044681856103e5565b93506104568185602086016103f6565b61045f81610420565b840191505092915050565b600060208201905081810360008301526104848184610431565b905092915050565b600080fd5b6000819050919050565b6104a481610491565b81146104af57600080fd5b50565b6000813590506104c18161049b565b92915050565b6000602082840312156104dd576104dc61048c565b5b60006104eb848285016104b2565b91505092915050565b6104fd81610491565b82525050565b600060208201905061051860008301846104f4565b92915050565b600081519050919050565b600082825260208201905092915050565b6000819050602082019050919050565b61055381610491565b82525050565b6000610565838361054a565b60208301905092915050565b6000602082019050919050565b60006105898261051e565b6105938185610529565b935061059e8361053a565b8060005b838110156105cf5781516105b68882610559565b97506105c183610571565b9250506001810190506105a2565b5085935050505092915050565b600060208201905081810360008301526105f6818461057e565b905092915050565b7f4e487b7100000000000000000000000000000000000000000000000000000000600052602260045260246000fd5b6000600282049050600182168061064557607f821691505b602082108103610658576106576105fe565b5b50919050565b7f696e646578206f7574206f6620626f756e647300000000000000000000000000600082015250565b60006106946013836103e5565b915061069f8261065e565b602082019050919050565b600060208201905081810360008301526106c381610687565b9050919050565b7f4e487b7100000000000000000000000000000000000000000000000000000000600052603260045260246000fd5b7f4e487b7100000000000000000000000000000000000000000000000000000000600052603160045260246000fdfea264697066735822122050545ed744f65fe5d2cac899f6d40ca3aaf5aa7f4796e1c757dccd70b463066464736f6c634300081c0033",
          "opcodes": "PUSH1 0x80 PUSH1 0x40 MSTORE PUSH1 0x40 MLOAD DUP1 PUSH1 0x60 ADD PUSH1 0x40 MSTORE DUP1 PUSH1 0x3 PUSH1 0xFF AND DUP2 MSTORE PUSH1 0x20 ADD PUSH1 0x5 PUSH1 0xFF AND DUP2 MSTORE PUSH1 0x20 ADD PUSH1 0x2 PUSH1 0xFF AND DUP2 MSTORE POP PUSH1 0x2 SWAP1 PUSH1 0x3 PUSH2 0x3B SWAP3 SWAP2 SWAP1 PUSH2 0x80 JUMP JUMPDEST POP CALLVALUE DUP1 ISZERO PUSH2 0x48 JUMPI PUSH1 0x0 DUP1 REVERT JUMPDEST POP PUSH1 0x40 MLOAD PUSH2 0xD0D CODESIZE SUB DUP1 PUSH2 0xD0D DUP4 CODECOPY DUP2 DUP2 ADD PUSH1 0x40 MSTORE DUP2 ADD SWAP1 PUSH2 0x6A SWAP2 SWAP1 PUSH2 0x264 JUMP JUMPDEST DUP1 PUSH1 0x0 SWAP1 DUP2 PUSH2 0x79 SWAP2 SWAP1 PUSH2 0x4CE JUMP JUMPDEST POP POP PUSH2 0x5A0 JUMP JUMPDEST DUP3 DUP1 SLOAD DUP3 DUP3 SSTORE SWAP1 PUSH1 0x0 MSTORE PUSH1 0x20 PUSH1 0x0 KECCAK256 SWAP1 DUP2 ADD SWAP3 DUP3 ISZERO PUSH2 0xC1 JUMPI SWAP2 PUSH1 0x20 MUL DUP3 ADD JUMPDEST DUP3 DUP2 GT ISZERO PUSH2 0xC0 JUMPI DUP3 MLOAD DUP3 SWAP1 PUSH1 0xFF AND SWAP1 SSTORE SWAP2 PUSH1 0x20 ADD SWAP2 SWAP1 PUSH1 0x1 ADD SWAP1 PUSH2 0xA0 JUMP JUMPDEST JUMPDEST POP SWAP1 POP PUSH2 0xCE SWAP2 SWAP1 PUSH2 0xD2 JUMP JUMPDEST POP SWAP1 JUMP JUMPDEST JUMPDEST DUP1 DUP3 GT ISZERO PUSH2 0xEB JUMPI PUSH1 0x0 DUP2 PUSH1 0x0 SWAP1 SSTORE POP PUSH1 0x1 ADD PUSH2 0xD3 JUMP JUMPDEST POP SWAP1 JUMP JUMPDEST PUSH1 0x0 PUSH1 0x40 MLOAD SWAP1 POP SWAP1 JUMP JUMPDEST PUSH1 0x0 DUP1 REVERT JUMPDEST PUSH1 0x0 DUP1 REVERT JUMPDEST PUSH1 0x0 DUP1 REVERT JUMPDEST PUSH1 0x0 DUP1 REVERT JUMPDEST PUSH1 0x0 PUSH1 0x1F NOT PUSH1 0x1F DUP4 ADD AND SWAP1 POP SWAP2 SWAP1 POP JUMP JUMPDEST PUSH32 0x4E487B7100000000000000000000000000000000000000000000000000000000 PUSH1 0x0 MSTORE PUSH1 0x41 PUSH1 0x4 MSTORE PUSH1 0x24 PUSH1 0x0 REVERT JUMPDEST PUSH2 0x156 DUP3 PUSH2 0x10D JUMP JUMPDEST DUP2 ADD DUP2 DUP2 LT PUSH8 0xFFFFFFFFFFFFFFFF DUP3 GT OR ISZERO PUSH2 0x175 JUMPI PUSH2 0x174 PUSH2 0x11E JUMP JUMPDEST JUMPDEST DUP1 PUSH1 0x40 MSTORE POP POP POP JUMP JUMPDEST PUSH1 0x0 PUSH2 0x188 PUSH2 0xEF JUMP JUMPDEST SWAP1 POP PUSH2 0x194 DUP3 DUP3 PUSH2 0x14D JUMP JUMPDEST SWAP2 SWAP1 POP JUMP JUMPDEST PUSH1 0x0 PUSH8 0xFFFFFFFFFFFFFFFF DUP3 GT ISZERO PUSH2 0x1B4 JUMPI PUSH2 0x1B3 PUSH2 0x11E JUMP JUMPDEST JUMPDEST PUSH2 0x1BD DUP3 PUSH2 0x10D JUMP JUMPDEST SWAP1 POP PUSH1 0x20 DUP2 ADD SWAP1 POP SWAP2 SWAP1 POP JUMP JUMPDEST PUSH1 0x0 JUMPDEST DUP4 DUP2 LT ISZERO PUSH2 0x1E8 JUMPI DUP1 DUP3 ADD MLOAD DUP2 DUP5 ADD MSTORE PUSH1 0x20 DUP2 ADD SWAP1 POP PUSH2 0x1CD JUMP JUMPDEST PUSH1 0x0 DUP5 DUP5 ADD MSTORE POP POP POP POP JUMP JUMPDEST PUSH1 0x0 PUSH2 0x207 PUSH2 0x202 DUP5 PUSH2 0x199 JUMP JUMPDEST PUSH2 0x17E JUMP JUMPDEST SWAP1 POP DUP3 DUP2 MSTORE PUSH1 0x20 DUP2 ADD DUP5 DUP5 DUP5 ADD GT ISZERO PUSH2 0x223 JUMPI PUSH2 0x222 PUSH2 0x108 JUMP JUMPDEST JUMPDEST PUSH2 0x22E DUP5 DUP3 DUP6 PUSH2 0x1CA JUMP JUMPDEST POP SWAP4 SWAP3 POP POP POP JUMP JUMPDEST PUSH1 0x0 DUP3 PUSH1 0x1F DUP4 ADD SLT PUSH2 0x24B JUMPI PUSH2 0x24A PUSH2 0x103 JUMP JUMPDEST JUMPDEST DUP2 MLOAD PUSH2 0x25B DUP5 DUP3 PUSH1 0x20 DUP7 ADD PUSH2 0x1F4 JUMP JUMPDEST SWAP2 POP POP SWAP3 SWAP2 POP POP JUMP JUMPDEST PUSH1 0x0 PUSH1 0x20 DUP3 DUP5 SUB SLT ISZERO PUSH2 0x27A JUMPI PUSH2 0x279 PUSH2 0xF9 JUMP JUMPDEST JUMPDEST PUSH1 0x0 DUP3 ADD MLOAD PUSH8 0xFFFFFFFFFFFFFFFF DUP2 GT ISZERO PUSH2 0x298 JUMPI PUSH2 0x297 PUSH2 0xFE JUMP JUMPDEST JUMPDEST PUSH2 0x2A4 DUP5 DUP3 DUP6 ADD PUSH2 0x236 JUMP JUMPDEST SWAP2 POP POP SWAP3 SWAP2 POP POP JUMP JUMPDEST PUSH1 0x0 DUP2 MLOAD SWAP1 POP SWAP2 SWAP1 POP JUMP JUMPDEST PUSH32 0x4E487B7100000000000000000000000000000000000000000000000000000000 PUSH1 0x0 MSTORE PUSH1 0x22 PUSH1 0x4 MSTORE PUSH1 0x24 PUSH1 0x0 REVERT JUMPDEST PUSH1 0x0 PUSH1 0x2 DUP3 DIV SWAP1 POP PUSH1 0x1 DUP3 AND DUP1 PUSH2 0x2FF JUMPI PUSH1 0x7F DUP3 AND SWAP2 POP JUMPDEST PUSH1 0x20 DUP3 LT DUP2 SUB PUSH2 0x312 JUMPI PUSH2 0x311 PUSH2 0x2B8 JUMP JUMPDEST JUMPDEST POP SWAP2 SWAP1 POP JUMP JUMPDEST PUSH1 0x0 DUP2 SWAP1 POP DUP2 PUSH1 0x0 MSTORE PUSH1 0x20 PUSH1 0x0 KECCAK256 SWAP1 POP SWAP2 SWAP1 POP JUMP JUMPDEST PUSH1 0x0 PUSH1 0x20 PUSH1 0x1F DUP4 ADD DIV SWAP1 POP SWAP2 SWAP1 POP JUMP JUMPDEST PUSH1 0x0 DUP3 DUP3 SHL SWAP1 POP SWAP3 SWAP2 POP POP JUMP JUMPDEST PUSH1 0x0 PUSH1 0x8 DUP4 MUL PUSH2 0x37A PUSH32 0xFFFFFFFFFFFFFFFFFFFFFFFFFFFFFFFFFFFFFFFFFFFFFFFFFFFFFFFFFFFFFFFF DUP3 PUSH2 0x33D JUMP JUMPDEST PUSH2 0x384 DUP7 DUP4 PUSH2 0x33D JUMP JUMPDEST SWAP6 POP DUP1 NOT DUP5 AND SWAP4 POP DUP1 DUP7 AND DUP5 OR SWAP3 POP POP POP SWAP4 SWAP3 POP POP POP JUMP JUMPDEST PUSH1 0x0 DUP2 SWAP1 POP SWAP2 SWAP1 POP JUMP JUMPDEST PUSH1 0x0 DUP2 SWAP1 POP SWAP2 SWAP1 POP JUMP JUMPDEST PUSH1 0x0 PUSH2 0x3CB PUSH2 0x3C6 PUSH2 0x3C1 DUP5 PUSH2 0x39C JUMP JUMPDEST PUSH2 0x3A6 JUMP JUMPDEST PUSH2 0x39C JUMP JUMPDEST SWAP1 POP SWAP2 SWAP1 POP JUMP JUMPDEST PUSH1 0x0 DUP2 SWAP1 POP SWAP2 SWAP1 POP JUMP JUMPDEST PUSH2 0x3E5 DUP4 PUSH2 0x3B0 JUMP JUMPDEST PUSH2 0x3F9 PUSH2 0x3F1 DUP3 PUSH2 0x3D2 JUMP JUMPDEST DUP5 DUP5 SLOAD PUSH2 0x34A JUMP JUMPDEST DUP3 SSTORE POP POP POP POP JUMP JUMPDEST PUSH1 0x0 SWAP1 JUMP JUMPDEST PUSH2 0x40E PUSH2 0x401 JUMP JUMPDEST PUSH2 0x419 DUP2 DUP5 DUP5 PUSH2 0x3DC JUMP JUMPDEST POP POP POP JUMP JUMPDEST JUMPDEST DUP2 DUP2 LT ISZERO PUSH2 0x43D JUMPI PUSH2 0x432 PUSH1 0x0 DUP3 PUSH2 0x406 JUMP JUMPDEST PUSH1 0x1 DUP2 ADD SWAP1 POP PUSH2 0x41F JUMP JUMPDEST POP POP JUMP JUMPDEST PUSH1 0x1F DUP3 GT ISZERO PUSH2 0x482 JUMPI PUSH2 0x453 DUP2 PUSH2 0x318 JUMP JUMPDEST PUSH2 0x45C DUP5 PUSH2 0x32D JUMP JUMPDEST DUP2 ADD PUSH1 0x20 DUP6 LT ISZERO PUSH2 0x46B JUMPI DUP2 SWAP1 POP JUMPDEST PUSH2 0x47F PUSH2 0x477 DUP6 PUSH2 0x32D JUMP JUMPDEST DUP4 ADD DUP3 PUSH2 0x41E JUMP JUMPDEST POP POP JUMPDEST POP POP POP JUMP JUMPDEST PUSH1 0x0 DUP3 DUP3 SHR SWAP1 POP SWAP3 SWAP2 POP POP JUMP JUMPDEST PUSH1 0x0 PUSH2 0x4A5 PUSH1 0x0 NOT DUP5 PUSH1 0x8 MUL PUSH2 0x487 JUMP JUMPDEST NOT DUP1 DUP4 AND SWAP2 POP POP SWAP3 SWAP2 POP POP JUMP JUMPDEST PUSH1 0x0 PUSH2 0x4BE DUP4 DUP4 PUSH2 0x494 JUMP JUMPDEST SWAP2 POP DUP3 PUSH1 0x2 MUL DUP3 OR SWAP1 POP SWAP3 SWAP2 POP POP JUMP JUMPDEST PUSH2 0x4D7 DUP3 PUSH2 0x2AD JUMP JUMPDEST PUSH8 0xFFFFFFFFFFFFFFFF DUP2 GT ISZERO PUSH2 0x4F0 JUMPI PUSH2 0x4EF PUSH2 0x11E JUMP JUMPDEST JUMPDEST PUSH2 0x4FA DUP3 SLOAD PUSH2 0x2E7 JUMP JUMPDEST PUSH2 0x505 DUP3 DUP3 DUP6 PUSH2 0x441 JUMP JUMPDEST PUSH1 0x0 PUSH1 0x20 SWAP1 POP PUSH1 0x1F DUP4 GT PUSH1 0x1 DUP2 EQ PUSH2 0x538 JUMPI PUSH1 0x0 DUP5 ISZERO PUSH2 0x526 JUMPI DUP3 DUP8 ADD MLOAD SWAP1 POP JUMPDEST PUSH2 0x530 DUP6 DUP3 PUSH2 0x4B2 JUMP JUMPDEST DUP7 SSTORE POP PUSH2 0x598 JUMP JUMPDEST PUSH1 0x1F NOT DUP5 AND PUSH2 0x546 DUP7 PUSH2 0x318 JUMP JUMPDEST PUSH1 0x0 JUMPDEST DUP3 DUP2 LT ISZERO PUSH2 0x56E JUMPI DUP5 DUP10 ADD MLOAD DUP3 SSTORE PUSH1 0x1 DUP3 ADD SWAP2 POP PUSH1 0x20 DUP6 ADD SWAP5 POP PUSH1 0x20 DUP2 ADD SWAP1 POP PUSH2 0x549 JUMP JUMPDEST DUP7 DUP4 LT ISZERO PUSH2 0x58B JUMPI DUP5 DUP10 ADD MLOAD PUSH2 0x587 PUSH1 0x1F DUP10 AND DUP3 PUSH2 0x494 JUMP JUMPDEST DUP4 SSTORE POP JUMPDEST PUSH1 0x1 PUSH1 0x2 DUP9 MUL ADD DUP9 SSTORE POP POP POP JUMPDEST POP POP POP POP POP POP JUMP JUMPDEST PUSH2 0x75E DUP1 PUSH2 0x5AF PUSH1 0x0 CODECOPY PUSH1 0x0 RETURN INVALID PUSH1 0x80 PUSH1 0x40 MSTORE CALLVALUE DUP1 ISZERO PUSH2 0x10 JUMPI PUSH1 0x0 DUP1 REVERT JUMPDEST POP PUSH1 0x4 CALLDATASIZE LT PUSH2 0x7D JUMPI PUSH1 0x0 CALLDATALOAD PUSH1 0xE0 SHR DUP1 PUSH4 0xA650D2D7 GT PUSH2 0x5B JUMPI DUP1 PUSH4 0xA650D2D7 EQ PUSH2 0xEC JUMPI DUP1 PUSH4 0xCD313A06 EQ PUSH2 0x11C JUMPI DUP1 PUSH4 0xEB8DB15C EQ PUSH2 0x13A JUMPI DUP1 PUSH4 0xF665E408 EQ PUSH2 0x16A JUMPI PUSH2 0x7D JUMP JUMPDEST DUP1 PUSH4 0x6FDDE03 EQ PUSH2 0x82 JUMPI DUP1 PUSH4 0x431AABC2 EQ PUSH2 0xA0 JUMPI DUP1 PUSH4 0x4526A43F EQ PUSH2 0xD0 JUMPI JUMPDEST PUSH1 0x0 DUP1 REVERT JUMPDEST PUSH2 0x8A PUSH2 0x188 JUMP JUMPDEST PUSH1 0x40 MLOAD PUSH2 0x97 SWAP2 SWAP1 PUSH2 0x46A JUMP JUMPDEST PUSH1 0x40 MLOAD DUP1 SWAP2 SUB SWAP1 RETURN JUMPDEST PUSH2 0xBA PUSH1 0x4 DUP1 CALLDATASIZE SUB DUP2 ADD SWAP1 PUSH2 0xB5 SWAP2 SWAP1 PUSH2 0x4C7 JUMP JUMPDEST PUSH2 0x216 JUMP JUMPDEST PUSH1 0x40 MLOAD PUSH2 0xC7 SWAP2 SWAP1 PUSH2 0x503 JUMP JUMPDEST PUSH1 0x40 MLOAD DUP1 SWAP2 SUB SWAP1 RETURN JUMPDEST PUSH2 0xEA PUSH1 0x4 DUP1 CALLDATASIZE SUB DUP2 ADD SWAP1 PUSH2 0xE5 SWAP2 SWAP1 PUSH2 0x4C7 JUMP JUMPDEST PUSH2 0x23A JUMP JUMPDEST STOP JUMPDEST PUSH2 0x106 PUSH1 0x4 DUP1 CALLDATASIZE SUB DUP2 ADD SWAP1 PUSH2 0x101 SWAP2 SWAP1 PUSH2 0x4C7 JUMP JUMPDEST PUSH2 0x2A6 JUMP JUMPDEST PUSH1 0x40 MLOAD PUSH2 0x113 SWAP2 SWAP1 PUSH2 0x503 JUMP JUMPDEST PUSH1 0x40 MLOAD DUP1 SWAP2 SUB SWAP1 RETURN JUMPDEST PUSH2 0x124 PUSH2 0x2CA JUMP JUMPDEST PUSH1 0x40 MLOAD PUSH2 0x131 SWAP2 SWAP1 PUSH2 0x503 JUMP JUMPDEST PUSH1 0x40 MLOAD DUP1 SWAP2 SUB SWAP1 RETURN JUMPDEST PUSH2 0x154 PUSH1 0x4 DUP1 CALLDATASIZE SUB DUP2 ADD SWAP1 PUSH2 0x14F SWAP2 SWAP1 PUSH2 0x4C7 JUMP JUMPDEST PUSH2 0x2D7 JUMP JUMPDEST PUSH1 0x40 MLOAD PUSH2 0x161 SWAP2 SWAP1 PUSH2 0x5DC JUMP JUMPDEST PUSH1 0x40 MLOAD DUP1 SWAP2 SUB SWAP1 RETURN JUMPDEST PUSH2 0x172 PUSH2 0x35A JUMP JUMPDEST PUSH1 0x40 MLOAD PUSH2 0x17F SWAP2 SWAP1 PUSH2 0x5DC JUMP JUMPDEST PUSH1 0x40 MLOAD DUP1 SWAP2 SUB SWAP1 RETURN JUMPDEST PUSH1 0x0 DUP1 SLOAD PUSH2 0x195 SWAP1 PUSH2 0x62D JUMP JUMPDEST DUP1 PUSH1 0x1F ADD PUSH1 0x20 DUP1 SWAP2 DIV MUL PUSH1 0x20 ADD PUSH1 0x40 MLOAD SWAP1 DUP2 ADD PUSH1 0x40 MSTORE DUP1 SWAP3 SWAP2 SWAP1 DUP2 DUP2 MSTORE PUSH1 0x20 ADD DUP3 DUP1 SLOAD PUSH2 0x1C1 SWAP1 PUSH2 0x62D JUMP JUMPDEST DUP1 ISZERO PUSH2 0x20E JUMPI DUP1 PUSH1 0x1F LT PUSH2 0x1E3 JUMPI PUSH2 0x100 DUP1 DUP4 SLOAD DIV MUL DUP4 MSTORE SWAP2 PUSH1 0x20 ADD SWAP2 PUSH2 0x20E JUMP JUMPDEST DUP3 ADD SWAP2 SWAP1 PUSH1 0x0 MSTORE PUSH1 0x20 PUSH1 0x0 KECCAK256 SWAP1 JUMPDEST DUP2 SLOAD DUP2 MSTORE SWAP1 PUSH1 0x1 ADD SWAP1 PUSH1 0x20 ADD DUP1 DUP4 GT PUSH2 0x1F1 JUMPI DUP3 SWAP1 SUB PUSH1 0x1F AND DUP3 ADD SWAP2 JUMPDEST POP POP POP POP POP DUP2 JUMP JUMPDEST PUSH1 0x1 DUP2 DUP2 SLOAD DUP2 LT PUSH2 0x226 JUMPI PUSH1 0x0 DUP1 REVERT JUMPDEST SWAP1 PUSH1 0x0 MSTORE PUSH1 0x20 PUSH1 0x0 KECCAK256 ADD PUSH1 0x0 SWAP2 POP SWAP1 POP SLOAD DUP2 JUMP JUMPDEST PUSH1 0x2 DUP1 SLOAD SWAP1 POP DUP2 LT PUSH2 0x281 JUMPI PUSH1 0x40 MLOAD PUSH32 0x8C379A000000000000000000000000000000000000000000000000000000000 DUP2 MSTORE PUSH1 0x4 ADD PUSH2 0x278 SWAP1 PUSH2 0x6AA JUMP JUMPDEST PUSH1 0x40 MLOAD DUP1 SWAP2 SUB SWAP1 REVERT JUMPDEST PUSH1 0x2 DUP2 DUP2 SLOAD DUP2 LT PUSH2 0x295 JUMPI PUSH2 0x294 PUSH2 0x6CA JUMP JUMPDEST JUMPDEST SWAP1 PUSH1 0x0 MSTORE PUSH1 0x20 PUSH1 0x0 KECCAK256 ADD PUSH1 0x0 SWAP1 SSTORE POP JUMP JUMPDEST PUSH1 0x2 DUP2 DUP2 SLOAD DUP2 LT PUSH2 0x2B6 JUMPI PUSH1 0x0 DUP1 REVERT JUMPDEST SWAP1 PUSH1 0x0 MSTORE PUSH1 0x20 PUSH1 0x0 KECCAK256 ADD PUSH1 0x0 SWAP2 POP SWAP1 POP SLOAD DUP2 JUMP JUMPDEST PUSH1 0x0 PUSH1 0x2 DUP1 SLOAD SWAP1 POP SWAP1 POP SWAP1 JUMP JUMPDEST PUSH1 0x60 PUSH1 0x1 DUP3 SWAP1 DUP1 PUSH1 0x1 DUP2 SLOAD ADD DUP1 DUP3 SSTORE DUP1 SWAP2 POP POP PUSH1 0x1 SWAP1 SUB SWAP1 PUSH1 0x0 MSTORE PUSH1 0x20 PUSH1 0x0 KECCAK256 ADD PUSH1 0x0 SWAP1 SWAP2 SWAP1 SWAP2 SWAP1 SWAP2 POP SSTORE PUSH1 0x1 DUP1 SLOAD DUP1 PUSH1 0x20 MUL PUSH1 0x20 ADD PUSH1 0x40 MLOAD SWAP1 DUP2 ADD PUSH1 0x40 MSTORE DUP1 SWAP3 SWAP2 SWAP1 DUP2 DUP2 MSTORE PUSH1 0x20 ADD DUP3 DUP1 SLOAD DUP1 ISZERO PUSH2 0x34E JUMPI PUSH1 0x20 MUL DUP3 ADD SWAP2 SWAP1 PUSH1 0x0 MSTORE PUSH1 0x20 PUSH1 0x0 KECCAK256 SWAP1 JUMPDEST DUP2 SLOAD DUP2 MSTORE PUSH1 0x20 ADD SWAP1 PUSH1 0x1 ADD SWAP1 DUP1 DUP4 GT PUSH2 0x33A JUMPI JUMPDEST POP POP POP POP POP SWAP1 POP SWAP2 SWAP1 POP JUMP JUMPDEST PUSH1 0x60 PUSH1 0x2 DUP1 SLOAD DUP1 PUSH2 0x36E JUMPI PUSH2 0x36D PUSH2 0x6F9 JUMP JUMPDEST JUMPDEST PUSH1 0x1 SWAP1 SUB DUP2 DUP2 SWAP1 PUSH1 0x0 MSTORE PUSH1 0x20 PUSH1 0x0 KECCAK256 ADD PUSH1 0x0 SWAP1 SSTORE SWAP1 SSTORE PUSH1 0x2 DUP1 SLOAD DUP1 PUSH1 0x20 MUL PUSH1 0x20 ADD PUSH1 0x40 MLOAD SWAP1 DUP2 ADD PUSH1 0x40 MSTORE DUP1 SWAP3 SWAP2 SWAP1 DUP2 DUP2 MSTORE PUSH1 0x20 ADD DUP3 DUP1 SLOAD DUP1 ISZERO PUSH2 0x3D0 JUMPI PUSH1 0x20 MUL DUP3 ADD SWAP2 SWAP1 PUSH1 0x0 MSTORE PUSH1 0x20 PUSH1 0x0 KECCAK256 SWAP1 JUMPDEST DUP2 SLOAD DUP2 MSTORE PUSH1 0x20 ADD SWAP1 PUSH1 0x1 ADD SWAP1 DUP1 DUP4 GT PUSH2 0x3BC JUMPI JUMPDEST POP POP POP POP POP SWAP1 POP SWAP1 JUMP JUMPDEST PUSH1 0x0 DUP2 MLOAD SWAP1 POP SWAP2 SWAP1 POP JUMP JUMPDEST PUSH1 0x0 DUP3 DUP3 MSTORE PUSH1 0x20 DUP3 ADD SWAP1 POP SWAP3 SWAP2 POP POP JUMP JUMPDEST PUSH1 0x0 JUMPDEST DUP4 DUP2 LT ISZERO PUSH2 0x414 JUMPI DUP1 DUP3 ADD MLOAD DUP2 DUP5 ADD MSTORE PUSH1 0x20 DUP2 ADD SWAP1 POP PUSH2 0x3F9 JUMP JUMPDEST PUSH1 0x0 DUP5 DUP5 ADD MSTORE POP POP POP POP JUMP JUMPDEST PUSH1 0x0 PUSH1 0x1F NOT PUSH1 0x1F DUP4 ADD AND SWAP1 POP SWAP2 SWAP1 POP JUMP JUMPDEST PUSH1 0x0 PUSH2 0x43C DUP3 PUSH2 0x3DA JUMP JUMPDEST PUSH2 0x446 DUP2 DUP6 PUSH2 0x3E5 JUMP JUMPDEST SWAP4 POP PUSH2 0x456 DUP2 DUP6 PUSH1 0x20 DUP7 ADD PUSH2 0x3F6 JUMP JUMPDEST PUSH2 0x45F DUP2 PUSH2 0x420 JUMP JUMPDEST DUP5 ADD SWAP2 POP POP SWAP3 SWAP2 POP POP JUMP JUMPDEST PUSH1 0x0 PUSH1 0x20 DUP3 ADD SWAP1 POP DUP2 DUP2 SUB PUSH1 0x0 DUP4 ADD MSTORE PUSH2 0x484 DUP2 DUP5 PUSH2 0x431 JUMP JUMPDEST SWAP1 POP SWAP3 SWAP2 POP POP JUMP JUMPDEST PUSH1 0x0 DUP1 REVERT JUMPDEST PUSH1 0x0 DUP2 SWAP1 POP SWAP2 SWAP1 POP JUMP JUMPDEST PUSH2 0x4A4 DUP2 PUSH2 0x491 JUMP JUMPDEST DUP2 EQ PUSH2 0x4AF JUMPI PUSH1 0x0 DUP1 REVERT JUMPDEST POP JUMP JUMPDEST PUSH1 0x0 DUP2 CALLDATALOAD SWAP1 POP PUSH2 0x4C1 DUP2 PUSH2 0x49B JUMP JUMPDEST SWAP3 SWAP2 POP POP JUMP JUMPDEST PUSH1 0x0 PUSH1 0x20 DUP3 DUP5 SUB SLT ISZERO PUSH2 0x4DD JUMPI PUSH2 0x4DC PUSH2 0x48C JUMP JUMPDEST JUMPDEST PUSH1 0x0 PUSH2 0x4EB DUP5 DUP3 DUP6 ADD PUSH2 0x4B2 JUMP JUMPDEST SWAP2 POP POP SWAP3 SWAP2 POP POP JUMP JUMPDEST PUSH2 0x4FD DUP2 PUSH2 0x491 JUMP JUMPDEST DUP3 MSTORE POP POP JUMP JUMPDEST PUSH1 0x0 PUSH1 0x20 DUP3 ADD SWAP1 POP PUSH2 0x518 PUSH1 0x0 DUP4 ADD DUP5 PUSH2 0x4F4 JUMP JUMPDEST SWAP3 SWAP2 POP POP JUMP JUMPDEST PUSH1 0x0 DUP2 MLOAD SWAP1 POP SWAP2 SWAP1 POP JUMP JUMPDEST PUSH1 0x0 DUP3 DUP3 MSTORE PUSH1 0x20 DUP3 ADD SWAP1 POP SWAP3 SWAP2 POP POP JUMP JUMPDEST PUSH1 0x0 DUP2 SWAP1 POP PUSH1 0x20 DUP3 ADD SWAP1 POP SWAP2 SWAP1 POP JUMP JUMPDEST PUSH2 0x553 DUP2 PUSH2 0x491 JUMP JUMPDEST DUP3 MSTORE POP POP JUMP JUMPDEST PUSH1 0x0 PUSH2 0x565 DUP4 DUP4 PUSH2 0x54A JUMP JUMPDEST PUSH1 0x20 DUP4 ADD SWAP1 POP SWAP3 SWAP2 POP POP JUMP JUMPDEST PUSH1 0x0 PUSH1 0x20 DUP3 ADD SWAP1 POP SWAP2 SWAP1 POP JUMP JUMPDEST PUSH1 0x0 PUSH2 0x589 DUP3 PUSH2 0x51E JUMP JUMPDEST PUSH2 0x593 DUP2 DUP6 PUSH2 0x529 JUMP JUMPDEST SWAP4 POP PUSH2 0x59E DUP4 PUSH2 0x53A JUMP JUMPDEST DUP1 PUSH1 0x0 JUMPDEST DUP4 DUP2 LT ISZERO PUSH2 0x5CF JUMPI DUP2 MLOAD PUSH2 0x5B6 DUP9 DUP3 PUSH2 0x559 JUMP JUMPDEST SWAP8 POP PUSH2 0x5C1 DUP4 PUSH2 0x571 JUMP JUMPDEST SWAP3 POP POP PUSH1 0x1 DUP2 ADD SWAP1 POP PUSH2 0x5A2 JUMP JUMPDEST POP DUP6 SWAP4 POP POP POP POP SWAP3 SWAP2 POP POP JUMP JUMPDEST PUSH1 0x0 PUSH1 0x20 DUP3 ADD SWAP1 POP DUP2 DUP2 SUB PUSH1 0x0 DUP4 ADD MSTORE PUSH2 0x5F6 DUP2 DUP5 PUSH2 0x57E JUMP JUMPDEST SWAP1 POP SWAP3 SWAP2 POP POP JUMP JUMPDEST PUSH32 0x4E487B7100000000000000000000000000000000000000000000000000000000 PUSH1 0x0 MSTORE PUSH1 0x22 PUSH1 0x4 MSTORE PUSH1 0x24 PUSH1 0x0 REVERT JUMPDEST PUSH1 0x0 PUSH1 0x2 DUP3 DIV SWAP1 POP PUSH1 0x1 DUP3 AND DUP1 PUSH2 0x645 JUMPI PUSH1 0x7F DUP3 AND SWAP2 POP JUMPDEST PUSH1 0x20 DUP3 LT DUP2 SUB PUSH2 0x658 JUMPI PUSH2 0x657 PUSH2 0x5FE JUMP JUMPDEST JUMPDEST POP SWAP2 SWAP1 POP JUMP JUMPDEST PUSH32 0x696E646578206F7574206F6620626F756E647300000000000000000000000000 PUSH1 0x0 DUP3 ADD MSTORE POP JUMP JUMPDEST PUSH1 0x0 PUSH2 0x694 PUSH1 0x13 DUP4 PUSH2 0x3E5 JUMP JUMPDEST SWAP2 POP PUSH2 0x69F DUP3 PUSH2 0x65E JUMP JUMPDEST PUSH1 0x20 DUP3 ADD SWAP1 POP SWAP2 SWAP1 POP JUMP JUMPDEST PUSH1 0x0 PUSH1 0x20 DUP3 ADD SWAP1 POP DUP2 DUP2 SUB PUSH1 0x0 DUP4 ADD MSTORE PUSH2 0x6C3 DUP2 PUSH2 0x687 JUMP JUMPDEST SWAP1 POP SWAP2 SWAP1 POP JUMP JUMPDEST PUSH32 0x4E487B7100000000000000000000000000000000000000000000000000000000 PUSH1 0x0 MSTORE PUSH1 0x32 PUSH1 0x4 MSTORE PUSH1 0x24 PUSH1 0x0 REVERT JUMPDEST PUSH32 0x4E487B7100000000000000000000000000000000000000000000000000000000 PUSH1 0x0 MSTORE PUSH1 0x31 PUSH1 0x4 MSTORE PUSH1 0x24 PUSH1 0x0 REVERT INVALID LOG2 PUSH5 0x6970667358 0x22 SLT KECCAK256 POP SLOAD MCOPY 0xD7 PREVRANDAO 0xF6 PUSH0 0xE5 0xD2 0xCA 0xC8 SWAP10 0xF6 0xD4 0xC LOG3 0xAA CREATE2 0xAA PUSH32 0x4796E1C757DCCD70B463066464736F6C634300081C0033000000000000000000 "
        },
        "methodIdentifiers": {
          "Arraydelete(uint256)": "4526a43f",
          "Arraylength()": "cd313a06",
          "Arraypop()": "f665e408",
          "Arraypush(uint256)": "eb8db15c",
          "name()": "06fdde03",
          "number(uint256)": "431aabc2",
          "number1(uint256)": "a650d2d7"
        }
      }
    }
  }
}