{
  "_format": "hh-sol-artifact-1",
  "contractName": "Arraycontract",
  "sourceName": "contracts/Array.sol",
  "abi": [
    {
      "inputs": [
        {
          "internalType": "string",
          "name": "_name",
          "type": "string"
        }
      ],
      "stateMutability": "nonpayable",
      "type": "constructor"
    },
    {
      "inputs": [
        {
          "internalType": "uint256",
          "name": "index",
          "type": "uint256"
        }
      ],
      "name": "Arraydelete",
      "outputs": [],
      "stateMutability": "nonpayable",
      "type": "function"
    },
    {
      "inputs": [],
      "name": "Arraylength",
      "outputs": [
        {
          "internalType": "uint256",
          "name": "",
          "type": "uint256"
        }
      ],
      "stateMutability": "view",
      "type": "function"
    },
    {
      "inputs": [],
      "name": "Arraypop",
      "outputs": [
        {
          "internalType": "uint256[]",
          "name": "",
          "type": "uint256[]"
        }
      ],
      "stateMutability": "nonpayable",
      "type": "function"
    },
    {
      "inputs": [
        {
          "internalType": "uint256",
          "name": "num",
          "type": "uint256"
        }
      ],
      "name": "Arraypush",
      "outputs": [
        {
          "internalType": "uint256[]",
          "name": "",
          "type": "uint256[]"
        }
      ],
      "stateMutability": "nonpayable",
      "type": "function"
    },
    {
      "inputs": [],
      "name": "name",
      "outputs": [
        {
          "internalType": "string",
          "name": "",
          "type": "string"
        }
      ],
      "stateMutability": "view",
      "type": "function"
    },
    {
      "inputs": [
        {
          "internalType": "uint256",
          "name": "",
          "type": "uint256"
        }
      ],
      "name": "number",
      "outputs": [
        {
          "internalType": "uint256",
          "name": "",
          "type": "uint256"
        }
      ],
      "stateMutability": "view",
      "type": "function"
    },
    {
      "inputs": [
        {
          "internalType": "uint256",
          "name": "",
          "type": "uint256"
        }
      ],
      "name": "number1",
      "outputs": [
        {
          "internalType": "uint256",
          "name": "",
          "type": "uint256"
        }
      ],
      "stateMutability": "view",
      "type": "function"
    }
  ],
  "bytecode": "0x60806040526040518060600160405280600360ff168152602001600560ff168152602001600260ff16815250600290600361003b929190610080565b5034801561004857600080fd5b50604051610d0d380380610d0d833981810160405281019061006a9190610264565b806000908161007991906104ce565b50506105a0565b8280548282559060005260206000209081019282156100c1579160200282015b828111156100c0578251829060ff169055916020019190600101906100a0565b5b5090506100ce91906100d2565b5090565b5b808211156100eb5760008160009055506001016100d3565b5090565b6000604051905090565b600080fd5b600080fd5b600080fd5b600080fd5b6000601f19601f8301169050919050565b7f4e487b7100000000000000000000000000000000000000000000000000000000600052604160045260246000fd5b6101568261010d565b810181811067ffffffffffffffff821117156101755761017461011e565b5b80604052505050565b60006101886100ef565b9050610194828261014d565b919050565b600067ffffffffffffffff8211156101b4576101b361011e565b5b6101bd8261010d565b9050602081019050919050565b60005b838110156101e85780820151818401526020810190506101cd565b60008484015250505050565b600061020761020284610199565b61017e565b90508281526020810184848401111561022357610222610108565b5b61022e8482856101ca565b509392505050565b600082601f83011261024b5761024a610103565b5b815161025b8482602086016101f4565b91505092915050565b60006020828403121561027a576102796100f9565b5b600082015167ffffffffffffffff811115610298576102976100fe565b5b6102a484828501610236565b91505092915050565b600081519050919050565b7f4e487b7100000000000000000000000000000000000000000000000000000000600052602260045260246000fd5b600060028204905060018216806102ff57607f821691505b602082108103610312576103116102b8565b5b50919050565b60008190508160005260206000209050919050565b60006020601f8301049050919050565b600082821b905092915050565b60006008830261037a7fffffffffffffffffffffffffffffffffffffffffffffffffffffffffffffffff8261033d565b610384868361033d565b95508019841693508086168417925050509392505050565b6000819050919050565b6000819050919050565b60006103cb6103c66103c18461039c565b6103a6565b61039c565b9050919050565b6000819050919050565b6103e5836103b0565b6103f96103f1826103d2565b84845461034a565b825550505050565b600090565b61040e610401565b6104198184846103dc565b505050565b5b8181101561043d57610432600082610406565b60018101905061041f565b5050565b601f8211156104825761045381610318565b61045c8461032d565b8101602085101561046b578190505b61047f6104778561032d565b83018261041e565b50505b505050565b600082821c905092915050565b60006104a560001984600802610487565b1980831691505092915050565b60006104be8383610494565b9150826002028217905092915050565b6104d7826102ad565b67ffffffffffffffff8111156104f0576104ef61011e565b5b6104fa82546102e7565b610505828285610441565b600060209050601f8311600181146105385760008415610526578287015190505b61053085826104b2565b865550610598565b601f19841661054686610318565b60005b8281101561056e57848901518255600182019150602085019450602081019050610549565b8683101561058b5784890151610587601f891682610494565b8355505b6001600288020188555050505b505050505050565b61075e806105af6000396000f3fe608060405234801561001057600080fd5b506004361061007d5760003560e01c8063a650d2d71161005b578063a650d2d7146100ec578063cd313a061461011c578063eb8db15c1461013a578063f665e4081461016a5761007d565b806306fdde0314610082578063431aabc2146100a05780634526a43f146100d0575b600080fd5b61008a610188565b604051610097919061046a565b60405180910390f35b6100ba60048036038101906100b591906104c7565b610216565b6040516100c79190610503565b60405180910390f35b6100ea60048036038101906100e591906104c7565b61023a565b005b610106600480360381019061010191906104c7565b6102a6565b6040516101139190610503565b60405180910390f35b6101246102ca565b6040516101319190610503565b60405180910390f35b610154600480360381019061014f91906104c7565b6102d7565b60405161016191906105dc565b60405180910390f35b61017261035a565b60405161017f91906105dc565b60405180910390f35b600080546101959061062d565b80601f01602080910402602001604051908101604052809291908181526020018280546101c19061062d565b801561020e5780601f106101e35761010080835404028352916020019161020e565b820191906000526020600020905b8154815290600101906020018083116101f157829003601f168201915b505050505081565b6001818154811061022657600080fd5b906000526020600020016000915090505481565b6002805490508110610281576040517f08c379a0000000000000000000000000000000000000000000000000000000008152600401610278906106aa565b60405180910390fd5b60028181548110610295576102946106ca565b5b906000526020600020016000905550565b600281815481106102b657600080fd5b906000526020600020016000915090505481565b6000600280549050905090565b60606001829080600181540180825580915050600190039060005260206000200160009091909190915055600180548060200260200160405190810160405280929190818152602001828054801561034e57602002820191906000526020600020905b81548152602001906001019080831161033a575b50505050509050919050565b6060600280548061036e5761036d6106f9565b5b6001900381819060005260206000200160009055905560028054806020026020016040519081016040528092919081815260200182805480156103d057602002820191906000526020600020905b8154815260200190600101908083116103bc575b5050505050905090565b600081519050919050565b600082825260208201905092915050565b60005b838110156104145780820151818401526020810190506103f9565b60008484015250505050565b6000601f19601f8301169050919050565b600061043c826103da565b61044681856103e5565b93506104568185602086016103f6565b61045f81610420565b840191505092915050565b600060208201905081810360008301526104848184610431565b905092915050565b600080fd5b6000819050919050565b6104a481610491565b81146104af57600080fd5b50565b6000813590506104c18161049b565b92915050565b6000602082840312156104dd576104dc61048c565b5b60006104eb848285016104b2565b91505092915050565b6104fd81610491565b82525050565b600060208201905061051860008301846104f4565b92915050565b600081519050919050565b600082825260208201905092915050565b6000819050602082019050919050565b61055381610491565b82525050565b6000610565838361054a565b60208301905092915050565b6000602082019050919050565b60006105898261051e565b6105938185610529565b935061059e8361053a565b8060005b838110156105cf5781516105b68882610559565b97506105c183610571565b9250506001810190506105a2565b5085935050505092915050565b600060208201905081810360008301526105f6818461057e565b905092915050565b7f4e487b7100000000000000000000000000000000000000000000000000000000600052602260045260246000fd5b6000600282049050600182168061064557607f821691505b602082108103610658576106576105fe565b5b50919050565b7f696e646578206f7574206f6620626f756e647300000000000000000000000000600082015250565b60006106946013836103e5565b915061069f8261065e565b602082019050919050565b600060208201905081810360008301526106c381610687565b9050919050565b7f4e487b7100000000000000000000000000000000000000000000000000000000600052603260045260246000fd5b7f4e487b7100000000000000000000000000000000000000000000000000000000600052603160045260246000fdfea264697066735822122050545ed744f65fe5d2cac899f6d40ca3aaf5aa7f4796e1c757dccd70b463066464736f6c634300081c0033",
  "linkReferences": {},
  "deployedLinkReferences": {}
}