{
  "_format": "hh-sol-artifact-1",
  "contractName": "Bytescontract",
  "sourceName": "contracts/Bytes.sol",
  "abi": [
    {
      "inputs": [
        {
          "internalType": "bytes",
          "name": "data",
          "type": "bytes"
        },
        {
          "internalType": "uint256",
          "name": "index",
          "type": "uint256"
        }
      ],
      "name": "bytesAccess",
      "outputs": [
        {
          "internalType": "bytes1",
          "name": "",
          "type": "bytes1"
        }
      ],
      "stateMutability": "pure",
      "type": "function"
    },
    {
      "inputs": [
        {
          "internalType": "bytes",
          "name": "data",
          "type": "bytes"
        }
      ],
      "name": "getLength",
      "outputs": [
        {
          "internalType": "uint256",
          "name": "",
          "type": "uint256"
        }
      ],
      "stateMutability": "pure",
      "type": "function"
    }
  ],
  "bytecode": "0x6080604052348015600f57600080fd5b506104a88061001f6000396000f3fe608060405234801561001057600080fd5b50600436106100365760003560e01c806338013bcc1461003b5780636114ceca1461006b575b600080fd5b610055600480360381019061005091906102a1565b61009b565b6040516100629190610338565b60405180910390f35b61008560048036038101906100809190610353565b610106565b60405161009291906103ab565b60405180910390f35b6000825182106100e0576040517f08c379a00000000000000000000000000000000000000000000000000000000081526004016100d790610423565b60405180910390fd5b8282815181106100f3576100f2610443565b5b602001015160f81c60f81b905092915050565b600081519050919050565b6000604051905090565b600080fd5b600080fd5b600080fd5b600080fd5b6000601f19601f8301169050919050565b7f4e487b7100000000000000000000000000000000000000000000000000000000600052604160045260246000fd5b6101788261012f565b810181811067ffffffffffffffff8211171561019757610196610140565b5b80604052505050565b60006101aa610111565b90506101b6828261016f565b919050565b600067ffffffffffffffff8211156101d6576101d5610140565b5b6101df8261012f565b9050602081019050919050565b82818337600083830152505050565b600061020e610209846101bb565b6101a0565b90508281526020810184848401111561022a5761022961012a565b5b6102358482856101ec565b509392505050565b600082601f83011261025257610251610125565b5b81356102628482602086016101fb565b91505092915050565b6000819050919050565b61027e8161026b565b811461028957600080fd5b50565b60008135905061029b81610275565b92915050565b600080604083850312156102b8576102b761011b565b5b600083013567ffffffffffffffff8111156102d6576102d5610120565b5b6102e28582860161023d565b92505060206102f38582860161028c565b9150509250929050565b60007fff0000000000000000000000000000000000000000000000000000000000000082169050919050565b610332816102fd565b82525050565b600060208201905061034d6000830184610329565b92915050565b6000602082840312156103695761036861011b565b5b600082013567ffffffffffffffff81111561038757610386610120565b5b6103938482850161023d565b91505092915050565b6103a58161026b565b82525050565b60006020820190506103c0600083018461039c565b92915050565b600082825260208201905092915050565b7f696e646578206f7574206f6620626f756e647300000000000000000000000000600082015250565b600061040d6013836103c6565b9150610418826103d7565b602082019050919050565b6000602082019050818103600083015261043c81610400565b9050919050565b7f4e487b7100000000000000000000000000000000000000000000000000000000600052603260045260246000fdfea26469706673582212209f42b101ffa3051f32dcc3e250b6a632f9676c9cb1988152e2c8bc600052733a64736f6c634300081c0033",
  "linkReferences": {},
  "deployedLinkReferences": {}
}