{
  "_format": "hh-sol-artifact-1",
  "contractName": "Structcontract",
  "sourceName": "contracts/Struct.sol",
  "abi": [
    {
      "inputs": [],
      "name": "deleteUser",
      "outputs": [],
      "stateMutability": "nonpayable",
      "type": "function"
    },
    {
      "inputs": [],
      "name": "deletebalance",
      "outputs": [],
      "stateMutability": "nonpayable",
      "type": "function"
    },
    {
      "inputs": [],
      "name": "getUser",
      "outputs": [
        {
          "internalType": "string",
          "name": "",
          "type": "string"
        },
        {
          "internalType": "uint256",
          "name": "",
          "type": "uint256"
        },
        {
          "internalType": "uint256",
          "name": "",
          "type": "uint256"
        }
      ],
      "stateMutability": "view",
      "type": "function"
    },
    {
      "inputs": [
        {
          "internalType": "string",
          "name": "_name",
          "type": "string"
        },
        {
          "internalType": "uint256",
          "name": "_age",
          "type": "uint256"
        },
        {
          "internalType": "uint256",
          "name": "_balance",
          "type": "uint256"
        }
      ],
      "name": "setUser",
      "outputs": [],
      "stateMutability": "nonpayable",
      "type": "function"
    },
    {
      "inputs": [
        {
          "internalType": "uint256",
          "name": "_newbalance",
          "type": "uint256"
        }
      ],
      "name": "updatebalance",
      "outputs": [],
      "stateMutability": "nonpayable",
      "type": "function"
    },
    {
      "inputs": [],
      "name": "user",
      "outputs": [
        {
          "internalType": "string",
          "name": "name",
          "type": "string"
        },
        {
          "internalType": "uint256",
          "name": "age",
          "type": "uint256"
        },
        {
          "internalType": "uint256",
          "name": "balance",
          "type": "uint256"
        }
      ],
      "stateMutability": "view",
      "type": "function"
    }
  ],
  "bytecode": "0x6080604052348015600f57600080fd5b506109358061001f6000396000f3fe608060405234801561001057600080fd5b50600436106100625760003560e01c8063026ff05e14610067578063394f1f99146100715780634f8632ba1461007b5780635ad8295d1461009b578063832880e7146100b7578063ebd8c4c8146100d7575b600080fd5b61006f6100f3565b005b61007961011a565b005b610083610125565b604051610092939291906103d2565b60405180910390f35b6100b560048036038101906100b09190610450565b6101c5565b005b6100bf6101d2565b6040516100ce939291906103d2565b60405180910390f35b6100f160048036038101906100ec91906105b2565b61027e565b005b60008060008201600061010691906102cc565b600182016000905560028201600090555050565b600060020160009055565b600080600001805461013690610650565b80601f016020809104026020016040519081016040528092919081815260200182805461016290610650565b80156101af5780601f10610184576101008083540402835291602001916101af565b820191906000526020600020905b81548152906001019060200180831161019257829003601f168201915b5050505050908060010154908060020154905083565b8060006002018190555050565b6060600080600080016000600101546000600201548280546101f390610650565b80601f016020809104026020016040519081016040528092919081815260200182805461021f90610650565b801561026c5780601f106102415761010080835404028352916020019161026c565b820191906000526020600020905b81548152906001019060200180831161024f57829003601f168201915b50505050509250925092509250909192565b6040518060600160405280848152602001838152602001828152506000808201518160000190816102af919061082d565b506020820151816001015560408201518160020155905050505050565b5080546102d890610650565b6000825580601f106102ea5750610309565b601f016020900490600052602060002090810190610308919061030c565b5b50565b5b8082111561032557600081600090555060010161030d565b5090565b600081519050919050565b600082825260208201905092915050565b60005b83811015610363578082015181840152602081019050610348565b60008484015250505050565b6000601f19601f8301169050919050565b600061038b82610329565b6103958185610334565b93506103a5818560208601610345565b6103ae8161036f565b840191505092915050565b6000819050919050565b6103cc816103b9565b82525050565b600060608201905081810360008301526103ec8186610380565b90506103fb60208301856103c3565b61040860408301846103c3565b949350505050565b6000604051905090565b600080fd5b600080fd5b61042d816103b9565b811461043857600080fd5b50565b60008135905061044a81610424565b92915050565b6000602082840312156104665761046561041a565b5b60006104748482850161043b565b91505092915050565b600080fd5b600080fd5b7f4e487b7100000000000000000000000000000000000000000000000000000000600052604160045260246000fd5b6104bf8261036f565b810181811067ffffffffffffffff821117156104de576104dd610487565b5b80604052505050565b60006104f1610410565b90506104fd82826104b6565b919050565b600067ffffffffffffffff82111561051d5761051c610487565b5b6105268261036f565b9050602081019050919050565b82818337600083830152505050565b600061055561055084610502565b6104e7565b90508281526020810184848401111561057157610570610482565b5b61057c848285610533565b509392505050565b600082601f8301126105995761059861047d565b5b81356105a9848260208601610542565b91505092915050565b6000806000606084860312156105cb576105ca61041a565b5b600084013567ffffffffffffffff8111156105e9576105e861041f565b5b6105f586828701610584565b93505060206106068682870161043b565b92505060406106178682870161043b565b9150509250925092565b7f4e487b7100000000000000000000000000000000000000000000000000000000600052602260045260246000fd5b6000600282049050600182168061066857607f821691505b60208210810361067b5761067a610621565b5b50919050565b60008190508160005260206000209050919050565b60006020601f8301049050919050565b600082821b905092915050565b6000600883026106e37fffffffffffffffffffffffffffffffffffffffffffffffffffffffffffffffff826106a6565b6106ed86836106a6565b95508019841693508086168417925050509392505050565b6000819050919050565b600061072a610725610720846103b9565b610705565b6103b9565b9050919050565b6000819050919050565b6107448361070f565b61075861075082610731565b8484546106b3565b825550505050565b600090565b61076d610760565b61077881848461073b565b505050565b5b8181101561079c57610791600082610765565b60018101905061077e565b5050565b601f8211156107e1576107b281610681565b6107bb84610696565b810160208510156107ca578190505b6107de6107d685610696565b83018261077d565b50505b505050565b600082821c905092915050565b6000610804600019846008026107e6565b1980831691505092915050565b600061081d83836107f3565b9150826002028217905092915050565b61083682610329565b67ffffffffffffffff81111561084f5761084e610487565b5b6108598254610650565b6108648282856107a0565b600060209050601f8311600181146108975760008415610885578287015190505b61088f8582610811565b8655506108f7565b601f1984166108a586610681565b60005b828110156108cd578489015182556001820191506020850194506020810190506108a8565b868310156108ea57848901516108e6601f8916826107f3565b8355505b6001600288020188555050505b50505050505056fea2646970667358221220cf305641c66988d543822f87816f69524e53164f200aec38f6cbdb975e084ec864736f6c634300081c0033",
  "linkReferences": {},
  "deployedLinkReferences": {}
}