{
  "_format": "hh-sol-artifact-1",
  "contractName": "StringContract",
  "sourceName": "contracts/String.sol",
  "abi": [
    {
      "inputs": [
        {
          "internalType": "string",
          "name": "initial",
          "type": "string"
        }
      ],
      "stateMutability": "nonpayable",
      "type": "constructor"
    },
    {
      "inputs": [
        {
          "internalType": "string",
          "name": "a",
          "type": "string"
        },
        {
          "internalType": "string",
          "name": "b",
          "type": "string"
        }
      ],
      "name": "concat",
      "outputs": [
        {
          "internalType": "string",
          "name": "",
          "type": "string"
        }
      ],
      "stateMutability": "pure",
      "type": "function"
    },
    {
      "inputs": [
        {
          "internalType": "string",
          "name": "str",
          "type": "string"
        }
      ],
      "name": "getLength",
      "outputs": [
        {
          "internalType": "uint256",
          "name": "",
          "type": "uint256"
        }
      ],
      "stateMutability": "pure",
      "type": "function"
    },
    {
      "inputs": [
        {
          "internalType": "string",
          "name": "newStr",
          "type": "string"
        }
      ],
      "name": "setStoredString",
      "outputs": [],
      "stateMutability": "nonpayable",
      "type": "function"
    },
    {
      "inputs": [],
      "name": "storedString",
      "outputs": [
        {
          "internalType": "string",
          "name": "",
          "type": "string"
        }
      ],
      "stateMutability": "view",
      "type": "function"
    },
    {
      "inputs": [
        {
          "internalType": "string",
          "name": "str",
          "type": "string"
        }
      ],
      "name": "toBytes",
      "outputs": [
        {
          "internalType": "bytes",
          "name": "",
          "type": "bytes"
        }
      ],
      "stateMutability": "pure",
      "type": "function"
    },
    {
      "inputs": [
        {
          "internalType": "bytes",
          "name": "data",
          "type": "bytes"
        }
      ],
      "name": "toString",
      "outputs": [
        {
          "internalType": "string",
          "name": "",
          "type": "string"
        }
      ],
      "stateMutability": "pure",
      "type": "function"
    }
  ],
  "bytecode": "0x608060405234801561001057600080fd5b50604051610f1a380380610f1a833981810160405281019061003291906101bd565b80600090816100419190610427565b50506104f9565b6000604051905090565b600080fd5b600080fd5b600080fd5b600080fd5b6000601f19601f8301169050919050565b7f4e487b7100000000000000000000000000000000000000000000000000000000600052604160045260246000fd5b6100af82610066565b810181811067ffffffffffffffff821117156100ce576100cd610077565b5b80604052505050565b60006100e1610048565b90506100ed82826100a6565b919050565b600067ffffffffffffffff82111561010d5761010c610077565b5b61011682610066565b9050602081019050919050565b60005b83811015610141578082015181840152602081019050610126565b60008484015250505050565b600061016061015b846100f2565b6100d7565b90508281526020810184848401111561017c5761017b610061565b5b610187848285610123565b509392505050565b600082601f8301126101a4576101a361005c565b5b81516101b484826020860161014d565b91505092915050565b6000602082840312156101d3576101d2610052565b5b600082015167ffffffffffffffff8111156101f1576101f0610057565b5b6101fd8482850161018f565b91505092915050565b600081519050919050565b7f4e487b7100000000000000000000000000000000000000000000000000000000600052602260045260246000fd5b6000600282049050600182168061025857607f821691505b60208210810361026b5761026a610211565b5b50919050565b60008190508160005260206000209050919050565b60006020601f8301049050919050565b600082821b905092915050565b6000600883026102d37fffffffffffffffffffffffffffffffffffffffffffffffffffffffffffffffff82610296565b6102dd8683610296565b95508019841693508086168417925050509392505050565b6000819050919050565b6000819050919050565b600061032461031f61031a846102f5565b6102ff565b6102f5565b9050919050565b6000819050919050565b61033e83610309565b61035261034a8261032b565b8484546102a3565b825550505050565b600090565b61036761035a565b610372818484610335565b505050565b5b818110156103965761038b60008261035f565b600181019050610378565b5050565b601f8211156103db576103ac81610271565b6103b584610286565b810160208510156103c4578190505b6103d86103d085610286565b830182610377565b50505b505050565b600082821c905092915050565b60006103fe600019846008026103e0565b1980831691505092915050565b600061041783836103ed565b9150826002028217905092915050565b61043082610206565b67ffffffffffffffff81111561044957610448610077565b5b6104538254610240565b61045e82828561039a565b600060209050601f831160018114610491576000841561047f578287015190505b610489858261040b565b8655506104f1565b601f19841661049f86610271565b60005b828110156104c7578489015182556001820191506020850194506020810190506104a2565b868310156104e457848901516104e0601f8916826103ed565b8355505b6001600288020188555050505b505050505050565b610a12806105086000396000f3fe608060405234801561001057600080fd5b50600436106100625760003560e01c806302dd56d0146100675780636981b5f41461008557806371aad10d146100b557806389c19ddb146100e55780639f2e140e14610115578063c25e526b14610145575b600080fd5b61006f610161565b60405161007c91906102dd565b60405180910390f35b61009f600480360381019061009a9190610448565b6101ef565b6040516100ac91906104aa565b60405180910390f35b6100cf60048036038101906100ca9190610566565b6101fa565b6040516100dc91906102dd565b60405180910390f35b6100ff60048036038101906100fa91906105af565b610204565b60405161010c91906102dd565b60405180910390f35b61012f600480360381019061012a9190610448565b610230565b60405161013c919061067c565b60405180910390f35b61015f600480360381019061015a9190610448565b61023a565b005b6000805461016e906106cd565b80601f016020809104026020016040519081016040528092919081815260200182805461019a906106cd565b80156101e75780601f106101bc576101008083540402835291602001916101e7565b820191906000526020600020905b8154815290600101906020018083116101ca57829003601f168201915b505050505081565b600081519050919050565b6060819050919050565b6060828260405160200161021992919061073a565b604051602081830303815290604052905092915050565b6060819050919050565b8060009081610249919061090a565b5050565b600081519050919050565b600082825260208201905092915050565b60005b8381101561028757808201518184015260208101905061026c565b60008484015250505050565b6000601f19601f8301169050919050565b60006102af8261024d565b6102b98185610258565b93506102c9818560208601610269565b6102d281610293565b840191505092915050565b600060208201905081810360008301526102f781846102a4565b905092915050565b6000604051905090565b600080fd5b600080fd5b600080fd5b600080fd5b7f4e487b7100000000000000000000000000000000000000000000000000000000600052604160045260246000fd5b61035582610293565b810181811067ffffffffffffffff821117156103745761037361031d565b5b80604052505050565b60006103876102ff565b9050610393828261034c565b919050565b600067ffffffffffffffff8211156103b3576103b261031d565b5b6103bc82610293565b9050602081019050919050565b82818337600083830152505050565b60006103eb6103e684610398565b61037d565b90508281526020810184848401111561040757610406610318565b5b6104128482856103c9565b509392505050565b600082601f83011261042f5761042e610313565b5b813561043f8482602086016103d8565b91505092915050565b60006020828403121561045e5761045d610309565b5b600082013567ffffffffffffffff81111561047c5761047b61030e565b5b6104888482850161041a565b91505092915050565b6000819050919050565b6104a481610491565b82525050565b60006020820190506104bf600083018461049b565b92915050565b600067ffffffffffffffff8211156104e0576104df61031d565b5b6104e982610293565b9050602081019050919050565b6000610509610504846104c5565b61037d565b90508281526020810184848401111561052557610524610318565b5b6105308482856103c9565b509392505050565b600082601f83011261054d5761054c610313565b5b813561055d8482602086016104f6565b91505092915050565b60006020828403121561057c5761057b610309565b5b600082013567ffffffffffffffff81111561059a5761059961030e565b5b6105a684828501610538565b91505092915050565b600080604083850312156105c6576105c5610309565b5b600083013567ffffffffffffffff8111156105e4576105e361030e565b5b6105f08582860161041a565b925050602083013567ffffffffffffffff8111156106115761061061030e565b5b61061d8582860161041a565b9150509250929050565b600081519050919050565b600082825260208201905092915050565b600061064e82610627565b6106588185610632565b9350610668818560208601610269565b61067181610293565b840191505092915050565b600060208201905081810360008301526106968184610643565b905092915050565b7f4e487b7100000000000000000000000000000000000000000000000000000000600052602260045260246000fd5b600060028204905060018216806106e557607f821691505b6020821081036106f8576106f761069e565b5b50919050565b600081905092915050565b60006107148261024d565b61071e81856106fe565b935061072e818560208601610269565b80840191505092915050565b60006107468285610709565b91506107528284610709565b91508190509392505050565b60008190508160005260206000209050919050565b60006020601f8301049050919050565b600082821b905092915050565b6000600883026107c07fffffffffffffffffffffffffffffffffffffffffffffffffffffffffffffffff82610783565b6107ca8683610783565b95508019841693508086168417925050509392505050565b6000819050919050565b60006108076108026107fd84610491565b6107e2565b610491565b9050919050565b6000819050919050565b610821836107ec565b61083561082d8261080e565b848454610790565b825550505050565b600090565b61084a61083d565b610855818484610818565b505050565b5b818110156108795761086e600082610842565b60018101905061085b565b5050565b601f8211156108be5761088f8161075e565b61089884610773565b810160208510156108a7578190505b6108bb6108b385610773565b83018261085a565b50505b505050565b600082821c905092915050565b60006108e1600019846008026108c3565b1980831691505092915050565b60006108fa83836108d0565b9150826002028217905092915050565b6109138261024d565b67ffffffffffffffff81111561092c5761092b61031d565b5b61093682546106cd565b61094182828561087d565b600060209050601f8311600181146109745760008415610962578287015190505b61096c85826108ee565b8655506109d4565b601f1984166109828661075e565b60005b828110156109aa57848901518255600182019150602085019450602081019050610985565b868310156109c757848901516109c3601f8916826108d0565b8355505b6001600288020188555050505b50505050505056fea26469706673582212203ca59cbe441a0e4ab31cf400ee9a86a35b00bf33d1b21feba9e64b29b08bbb0964736f6c634300081c0033",
  "linkReferences": {},
  "deployedLinkReferences": {}
}