{
  "_format": "hh-sol-artifact-1",
  "contractName": "Mappingcontract",
  "sourceName": "contracts/Mapping.sol",
  "abi": [
    {
      "inputs": [
        {
          "internalType": "address",
          "name": "",
          "type": "address"
        }
      ],
      "name": "balance",
      "outputs": [
        {
          "internalType": "uint256",
          "name": "",
          "type": "uint256"
        }
      ],
      "stateMutability": "view",
      "type": "function"
    },
    {
      "inputs": [
        {
          "internalType": "address",
          "name": "user",
          "type": "address"
        }
      ],
      "name": "getBalance",
      "outputs": [
        {
          "internalType": "uint256",
          "name": "",
          "type": "uint256"
        }
      ],
      "stateMutability": "view",
      "type": "function"
    },
    {
      "inputs": [
        {
          "internalType": "address",
          "name": "user",
          "type": "address"
        },
        {
          "internalType": "uint256",
          "name": "amount",
          "type": "uint256"
        }
      ],
      "name": "setBalance",
      "outputs": [],
      "stateMutability": "nonpayable",
      "type": "function"
    }
  ],
  "bytecode": "0x6080604052348015600f57600080fd5b506102cf8061001f6000396000f3fe608060405234801561001057600080fd5b50600436106100415760003560e01c8063e30443bc14610046578063e3d670d714610062578063f8b2cb4f14610092575b600080fd5b610060600480360381019061005b9190610202565b6100c2565b005b61007c60048036038101906100779190610242565b610109565b604051610089919061027e565b60405180910390f35b6100ac60048036038101906100a79190610242565b610121565b6040516100b9919061027e565b60405180910390f35b806000808473ffffffffffffffffffffffffffffffffffffffff1673ffffffffffffffffffffffffffffffffffffffff168152602001908152602001600020819055505050565b60006020528060005260406000206000915090505481565b60008060008373ffffffffffffffffffffffffffffffffffffffff1673ffffffffffffffffffffffffffffffffffffffff168152602001908152602001600020549050919050565b600080fd5b600073ffffffffffffffffffffffffffffffffffffffff82169050919050565b60006101998261016e565b9050919050565b6101a98161018e565b81146101b457600080fd5b50565b6000813590506101c6816101a0565b92915050565b6000819050919050565b6101df816101cc565b81146101ea57600080fd5b50565b6000813590506101fc816101d6565b92915050565b6000806040838503121561021957610218610169565b5b6000610227858286016101b7565b9250506020610238858286016101ed565b9150509250929050565b60006020828403121561025857610257610169565b5b6000610266848285016101b7565b91505092915050565b610278816101cc565b82525050565b6000602082019050610293600083018461026f565b9291505056fea264697066735822122066b47ae0570638cc1fa2bce004fdeb50214027f0c8c92fdc6e571f1b18dcb78e64736f6c634300081c0033",
  "linkReferences": {},
  "deployedLinkReferences": {}
}